{
  "address": "0xc2778e6b8CAe587C2C175128e4d48EeF1D3bAE07",
  "abi": [
    {
      "inputs": [
        {
          "internalType": "address[]",
          "name": "_tokens",
          "type": "address[]"
        },
        {
          "internalType": "uint256[]",
          "name": "_amounts",
          "type": "uint256[]"
        }
      ],
      "name": "approveERC20Tokens",
      "outputs": [],
      "stateMutability": "nonpayable",
      "type": "function"
    },
    {
      "inputs": [
        {
          "internalType": "address",
          "name": "_sender",
          "type": "address"
        },
        {
          "internalType": "address",
          "name": "_token",
          "type": "address"
        },
        {
          "internalType": "uint256",
          "name": "_amount",
          "type": "uint256"
        }
      ],
      "name": "burnERC20Token",
      "outputs": [],
      "stateMutability": "nonpayable",
      "type": "function"
    },
    {
      "inputs": [
        {
          "internalType": "address[]",
          "name": "_tokens",
          "type": "address[]"
        },
        {
          "internalType": "uint256[]",
          "name": "_amounts",
          "type": "uint256[]"
        }
      ],
      "name": "burnERC20Tokens",
      "outputs": [],
      "stateMutability": "nonpayable",
      "type": "function"
    }
  ],
  "transactionHash": "0x5614f7f7ca1d71f156621c04cb78d2c0b585651950cd033f4090946b12df798c",
  "args": [],
  "numDeployments": 3,
  "solcInputHash": "d8ec34d7c7865a689ea84139165e92c6",
  "bytecode": "0x608060405234801561001057600080fd5b506103d7806100206000396000f3fe608060405234801561001057600080fd5b50600436106100415760003560e01c806345432ccd14610046578063fdcbc35e1461005b578063fe4b18191461006e575b600080fd5b610059610054366004610253565b610081565b005b6100596100693660046102db565b610100565b61005961007c3660046102db565b6101db565b6040516323b872dd60e01b81526001600160a01b038481166004830152306024830152604482018390528316906323b872dd906064016020604051808303816000875af11580156100d6573d6000803e3d6000fd5b505050506040513d601f19601f820116820180604052508101906100fa9190610347565b50505050565b60005b838110156101d45784848281811061011d5761011d610370565b90506020020160208101906101329190610386565b6001600160a01b031663095ea7b33385858581811061015357610153610370565b6040516001600160e01b031960e087901b1681526001600160a01b03909416600485015260200291909101356024830152506044016020604051808303816000875af11580156101a7573d6000803e3d6000fd5b505050506040513d601f19601f820116820180604052508101906101cb9190610347565b50600101610103565b5050505050565b60005b838110156101d45761022f338686848181106101fc576101fc610370565b90506020020160208101906102119190610386565b85858581811061022357610223610370565b90506020020135610081565b6001016101de565b80356001600160a01b038116811461024e57600080fd5b919050565b60008060006060848603121561026857600080fd5b61027184610237565b925061027f60208501610237565b9150604084013590509250925092565b60008083601f8401126102a157600080fd5b50813567ffffffffffffffff8111156102b957600080fd5b6020830191508360208260051b85010111156102d457600080fd5b9250929050565b600080600080604085870312156102f157600080fd5b843567ffffffffffffffff8082111561030957600080fd5b6103158883890161028f565b9096509450602087013591508082111561032e57600080fd5b5061033b8782880161028f565b95989497509550505050565b60006020828403121561035957600080fd5b8151801515811461036957600080fd5b9392505050565b634e487b7160e01b600052603260045260246000fd5b60006020828403121561039857600080fd5b6103698261023756fea264697066735822122060ecbdf2fcbd6538951fccc876751657fc4f2c12d09e945f00190df418a5add964736f6c63430008170033",
  "devdoc": {
    "kind": "dev",
    "methods": {},
    "version": 1
  },
  "userdoc": {
    "kind": "user",
    "methods": {},
    "version": 1
  },
  "storageLayout": {
    "storage": [],
    "types": null
  }
}