{
  "address": "0x22b1380c4758C30B1569621aa73eb1237459CdeD",
  "abi": [
    {
      "inputs": [
        {
          "internalType": "address",
          "name": "_sender",
          "type": "address"
        },
        {
          "internalType": "address",
          "name": "_token",
          "type": "address"
        },
        {
          "internalType": "uint256",
          "name": "_amount",
          "type": "uint256"
        }
      ],
      "name": "burnERC20Token",
      "outputs": [],
      "stateMutability": "nonpayable",
      "type": "function"
    },
    {
      "inputs": [
        {
          "internalType": "address[]",
          "name": "_tokens",
          "type": "address[]"
        },
        {
          "internalType": "uint256[]",
          "name": "_amounts",
          "type": "uint256[]"
        }
      ],
      "name": "burnERC20Tokens",
      "outputs": [],
      "stateMutability": "nonpayable",
      "type": "function"
    }
  ],
  "transactionHash": "0x0afb1d48b450244acaa7e1b8fd595990c135697ad58042835c68af79cb31f066",
  "args": [],
  "numDeployments": 2,
  "solcInputHash": "404813b770d4fda4481f71081276cbad",
  "bytecode": "0x608060405234801561001057600080fd5b506102e5806100206000396000f3fe608060405234801561001057600080fd5b50600436106100365760003560e01c806345432ccd1461003b578063fe4b181914610050575b600080fd5b61004e610049366004610161565b610063565b005b61004e61005e3660046101e9565b6100e2565b6040516323b872dd60e01b81526001600160a01b038481166004830152306024830152604482018390528316906323b872dd906064016020604051808303816000875af11580156100b8573d6000803e3d6000fd5b505050506040513d601f19601f820116820180604052508101906100dc9190610255565b50505050565b60005b8381101561013e57610136338686848181106101035761010361027e565b90506020020160208101906101189190610294565b85858581811061012a5761012a61027e565b90506020020135610063565b6001016100e5565b5050505050565b80356001600160a01b038116811461015c57600080fd5b919050565b60008060006060848603121561017657600080fd5b61017f84610145565b925061018d60208501610145565b9150604084013590509250925092565b60008083601f8401126101af57600080fd5b50813567ffffffffffffffff8111156101c757600080fd5b6020830191508360208260051b85010111156101e257600080fd5b9250929050565b600080600080604085870312156101ff57600080fd5b843567ffffffffffffffff8082111561021757600080fd5b6102238883890161019d565b9096509450602087013591508082111561023c57600080fd5b506102498782880161019d565b95989497509550505050565b60006020828403121561026757600080fd5b8151801515811461027757600080fd5b9392505050565b634e487b7160e01b600052603260045260246000fd5b6000602082840312156102a657600080fd5b6102778261014556fea2646970667358221220daac2e319ffa1fd15746cd466d73ee2159abd437144abed1c481230ba3a7265d64736f6c63430008170033",
  "devdoc": {
    "kind": "dev",
    "methods": {},
    "version": 1
  },
  "userdoc": {
    "kind": "user",
    "methods": {},
    "version": 1
  },
  "storageLayout": {
    "storage": [],
    "types": null
  }
}